:020000040800F2
:10000000500A0020D5000008852C00082927000888
:1000100000000000000000000000000000000000E0
:10002000000000000000000000000000FD2C00089F
:100030000000000000000000872C0008FF2C0008D2
:10004000E7000008E7000008E7000008E7000008F4
:10005000E7000008F10B0008E7000008E7000008CF
:1000600000000000B50B0008E7000008E7000008EA
:10007000C5060008AD29000800000000E7000008E0
:100080000000000000000000000000000000000070
:10009000E700000800000000E7000008E700000893
:1000A00000000000E7000008000000000000000061
:1000B000E7000008E7000008000000000000000062
:1000C0000348854600F07AFA00480047D73B00080D
:1000D000500A00200448804704480047FEE7FEE736
:1000E000FEE7FEE7FEE7FEE7A52D0008C1000008D9
:1000F00030B50B46014600202022012409E00D46C0
:10010000D5409D4205D31D469540491B2546954047
:1001100040191546521E002DF1DC30BD70B500248B
:100120002546002801DA01244042002901DA012590
:100130004942FFF7DDFFAC4200D04042002C00D026
:10014000494270BDF0B51FB40646002082B0054696
:100150004024019100901BE0019922460F46304651
:1001600000F054F8049A059B801A994110D3104668
:100170001946224600F03AF8361A8F410197224676
:1001800001200021009F00F031F838184D41009007
:100190002046641E0028DFDC019B00982946324679
:1001A00007B0F0BD03460B439B0703D009E008C925
:1001B000121F08C0042AFAD203E00B780370401C17
:1001C000491C521EF9D27047D2B201E00270401CA5
:1001D000491EFBD270470022F6E710B513460A46C7
:1001E00004461946FFF7F0FF204610BD10B5202A3F
:1001F00004DB0146203A9140002010BD91402023AD
:100200009C1A0346E3401943904010BD10B5202AC4
:1002100004DB0846203AD040002110BD0B46D340F5
:10022000D0402024A21A91400843194610BD000076
:10023000F0B507460846584087B0C00F0490480004
:100240000E46590040084908BC1A884105D2384674
:1002500031461E4617460B460246580040081043DA
:100260004CD0300D039040055900400D490D0590CC
:10027000401A0290402872DA18030121000B090588
:100280000843019004980092002805D00199524239
:100290000020884100920190029840210A1A019999
:1002A0000098FFF7A3FF05460C466B4607CB00F00E
:1002B00097F9C0197141039A0E0D0023D7175640C4
:1002C0001A467A40164344D0049A002A2DD0029A46
:1002D000012A039A15DC1205C01A91410126360540
:1002E000001C7141D20F059ED20700930192029625
:1002F0002A46234600F094F907B0F0BD384631464F
:10030000FAE71605224A0F46B218C01AB741012172
:100310000905001C4F4100187F411146181879410A
:10032000E20F10436D19644113E0E2076D081543B5
:100330006408C2071443039A01261205C01A9141AA
:100340003605001C7141CE07400830434908C018EB
:1003500051412A46234600F056F9CDE7FFE70498BD
:1003600001224000C117121A00238B410498314624
:10037000C417381AA141EEE730B40124E407634002
:1003800030BC55E730B40124E407614030BC4FE78E
:100390000000E0FFF0B51FB488B00B990998002465
:1003A00048400999C00F490049080991C0070B99B5
:1003B0000090490049080B9109990898A6460843FE
:1003C0001CD00B990A98084318D0099801244000C2
:1003D000420D4800410D099824050003000B2043FD
:1003E00009900B980003000B20430B9050181C49F8
:1003F0004018002201901446104605E000200146F6
:100400000DB0F0BD032801DA034600E003239C464B
:10041000C11A0AAE0AE05F0008ADED5B4F00F75B62
:100420007D430027AA187C41491C5B1E6145F2DD13
:10043000410004AB5A522104120C0A43240C401C04
:100440000828DFDB01980290009970460191009026
:10045000059B049A0799069800F0E2F8D0E700009F
:100460000DFCFFFFF0B50C465C4085B0E40FE407DF
:1004700003944C000026640859009446490802463B
:100480000296224321D062460A431ED06200570DD5
:100490004A000E032303550D012402462C4924056E
:1004A000781B1B0B360B40182343264361460090F4
:1004B0001C46501AB44103D30098401C009002E03F
:1004C000921800985B41002803DA0020014605B02D
:1004D000F0BD0020012109050746864611E064466B
:1004E0001D46141BB54106D36546521BB3417446E5
:1004F00007430C43A646CD074008490828439218F5
:100500005B4105460D43EAD11046184313D06046BF
:10051000194650407140084306D06046101AB34156
:1005200006D20122002306E000220123DB0702E0BD
:100530000122D2435310009874460105381C6141D2
:10054000029C039D0019694100F05DF8BFE70000BF
:10055000FD0300004A0009030123090B1B05194391
:100560000A4B10B5520D9A4202DA0020014610BD26
:10057000064B34339A4203DC9A1AFFF747FE10BD4C
:10058000034BD218FFF732FE10BD0000FF0300003E
:10059000CDFBFFFF10B5002904DB0124E407404236
:1005A0008C412146002B04DB1C460123DB07524211
:1005B000A341994200D1904210BD0000064C012594
:1005C000064E05E0E36807CC2B430C3C98471034FB
:1005D000B442F7D3FFF778FDE43D0008043E00087D
:1005E00010B5202A06DBCB170846203A1041C11768
:1005F0000B4306E00B461341D0402024A21A914041
:100600000843194610BD10B5002B08DA0024401C21
:10061000614192185B411A4301D14008400010BD6E
:10062000F0B51FB482B005460C0003D0084602F0B6
:100630001BFE02E002F018FE203002460090214628
:100640002846FFF7D3FD049B059A04460F4618433E
:100650001143084314D0184610431BD00098402182
:100660000A1A18460599FFF7D1FD05460E46009A6D
:1006700005990498FFF7BAFD084305D0012004E06E
:100680002046394607B0F0BD0020C11705430E4390
:100690002C43374300990E986305401A7905E40A04
:1006A00000220C43FD0A0A3002D500200146E9E78A
:1006B0000105101969410C9C0D9D00196941FFF756
:1006C000A2FFDFE710B5024800F064FB10BD000098
:1006D0007800002070B5044600688168490724D579
:1006E000816810264907002905DA8168890702D444
:1006F00081683143816000F069FF054611E000F038
:1007000065FF401B0A280CD920688068400708D57F
:10071000606D30436065A06D01210843A065084607
:1007200070BD206880684007E9D4002070BD10B516
:100730000146806A426D50231A420AD1416D01225E
:100740005202114341650168CA681205920F05D033
:1007500021E0C06C426B0846904710BD2022125C1D
:10076000002A18D10A68120715D58A685307012292
:10077000002B09DB4B680C24A3434B60416D130233
:1007800099431143416506E0416D202319434165BA
:10079000816D1143816500F07DFA10BD10B5806A4E
:1007A000416D402211434165816D042211438165F1
:1007B00000F0EFFA10BD10B5806A00F0E9FA10BD44
:1007C00038B50446064805490068FFF791FC6043C8
:1007D00000E0401E00900028FBD138BD40420F00D1
:1007E0001C000020F8B50446006881688907890F5D
:1007F000012929D10168C90726D081680522114045
:1008000010250126012913D181680222114381603C
:1008100021680320086000F0D9FE074610E000F0D0
:10082000D5FEC01B0A280BD920688068C00707D0F6
:10083000606D28436065A06D3043A0650120F8BD60
:1008400020688068C007EAD10020F8BDF8B50446EA
:10085000006881688907890F012902D10168C907E9
:1008600027D18168144A102611400125002913D18F
:100870008168294381600120FFF7A2FF00F0A6FEF6
:10088000074611E000F0A2FEC01B0A280CD9206820
:100890000068C043C00707D0606D30436065A06D3D
:1008A0002843A0650120F8BD20680068C043C00748
:1008B000E8D10020F8BD00001700008070B5134C8F
:1008C000E07800260125002807D0E670207900286E
:1008D00006D1257100F07AFEA0602079002811D0A1
:1008E00005200221000700F05DFE01280AD100F07A
:1008F0006DFEA1682671401A322803D3044988424C
:1009000001D3A57170BD657170BD000000000020AD
:10091000DC05000010B5052001220421000700F0CD
:100920004EFE00220121052001F006F9052001F00C
:10093000F7F803F097F9002801D005A000E009A01E
:1009400000F026F800F0C6F80AA000F021F810BD6B
:100950006F6C656420696E6974206661696C65649A
:100960000D0A00006F6C656420696E6974206F6BFE
:100970000D0A0000626F6F743A2061707020696E1A
:10098000697420636F6D706C6574650D0A000000FA
:100990000FB430B5C1B000F019FEFF240346013496
:1009A0000FA22146684602F02FFC0546FF2812D808
:1009B000684645AB611B4019449A02F03FFC002891
:1009C00009DB2818A04200DD204682B26423694674
:1009D000054801F049FE41B030BC08BC04B01847DE
:1009E0005B256C755D200000C401002070B586B0E9
:1009F00000F0ECFD0546FFF761FF224C7D21E06829
:100A0000C900281A884206D301210520C90300071E
:100A1000E56000F0CCFD60780026002817D06670F5
:100A2000194D64216869FFF779FB2B69EA68039324
:100A3000029205910490E888A96800900191AB8822
:100A40006A8829881148FFF7A3FF00F05BF8A078B7
:100A5000002802D0A67000F03DF86079002807D089
:100A60006671E17901204140E17109A0FFF790FF33
:100A7000A079002803D0A6710DA0FFF789FF06B06A
:100A800070BD000000000020200000207C3D000818
:100A9000627574746F6E2073686F72743A20746F2D
:100AA00067676C6520706167653D25750D0A0000FC
:100AB000627574746F6E206C6F6E673A206E6F2D66
:100AC0006F7020706C616365686F6C6465720D0A8D
:100AD0000000000070B5084C207800280BD10025DC
:100AE00065700120207020220449054800F0EAFAD0
:100AF000002800D0257070BD0000002038000020C4
:100B00007800002010B5052003F07CF80A480B4C53
:100B1000C07900280AD064216069FFF7FFFA0A460D
:100B20000146A38806A0FFF733FF10BD12A023697A
:100B3000A268E168F7E70000000000202000002024
:100B4000646973706C617920706167653A207465BF
:100B50006D70657261747572652C20696E743D25C7
:100B60006C642E2530326C6443206578745F72614A
:100B7000773D25750D0A0000646973706C617920FA
:100B8000706167653A20766F6C746167652C2076BA
:100B90006261743D256C756D562C20766464613DF0
:100BA000256C756D562C20767265663D256C756DCD
:100BB000560D0A0010B5024800F02EFB10BD0000D3
:100BC000D400002030B5446C1C252C400125A540E4
:100BD000046C6560046863608368102B036803D04D
:100BE00099600068C26030BD9A600068C16030BD25
:100BF00010B5022000F0FAFB10BD72B6FEE700004F
:100C0000F8B506460D464036317C01290DD001214C
:100C1000317401688A68520709D5416D2022114359
:100C20004165002030740120F8BD0220F8BD174B4B
:100C30006A68D80547109A42154C8A6A2B6812D008
:100C40005B035B0B1A438A622968490305D5A168D7
:100C50000143A1600A20FFF7B3FD2868800312D585
:100C6000A06838430EE05B035B0B9A438A622968F5
:100C7000490302D5A1688143A1602868800302D599
:100C8000A068B843A06000203074F8BD01100000D7
:100C900000270140F0B5364989B0884265D100F09F
:100CA0005DFA182101A8FFF796FA0024314D23467A
:100CB000224621462046C600AF5B3C19761977884C
:100CC000FB18B788F688BA187118401C0828F2D3A8
:100CD0006003040C684684805803030C6846C38094
:100CE0005003020C6846009302814803050C6846D5
:100CF00007924581002B04D01F480099FFF7F8F9AF
:100D000000E01E480390604340001D49FFF7F0F9E2
:100D10001C4A0490568BD78B03992846B74201D8BA
:100D200000200CE048431549FFF7E2F97D21801BC4
:100D300089014843B91BFFF7F1F9104940180690A3
:100D40000C48183804800099418007998180C5803B
:100D5000039981600499C1600B4901610699416161
:100D60000A48012141700021017009B0F0BD000066
:100D700078000020380000201E1B4E00B80B000039
:100D8000FF0F00006000F81FE204000000000020D8
:100D900070477047F8B504460068056846686907FB
:100DA00001D5710703D4290732D5310730D5616DDC
:100DB000C90604D4616D0122520211436165C16804
:100DC0000C270905890F00291AD12021095D002966
:100DD00016D1290714D581684A070121002A08DBAA
:100DE0004268BA434260606D0A02904308436065FE
:100DF00006E0606D202210436065A06D0843A06589
:100E00002046FFF747FFA069012801D0206807604E
:100E100028060CD530060AD5606D01210904084367
:100E20006065204600F000F9216880200860E8062F
:100E300014D5F00612D5206B1025002803D02068A9
:100E4000C068C00708D0A06D02210843A0652068D3
:100E500005602046FFF79DFF20680560F8BD000093
:100E600070B5040006D0606D264600254036002887
:100E700002D006E0012070BDA5653574204600F063
:100E8000D5F8606DC00603D421688868400705D591
:100E9000606D1021084360653574EBE7606DFF22DB
:100EA0000132904302221043606588688207920FE6
:100EB0005B48012A02D10A68D2072BD1032362685A
:100EC0009B079A4205D05B429A4202D05B009A424D
:100ED00009D10A69920092080A6121680A69636867
:100EE0001A430A610CE00A69920092080A6181685B
:100EF0000F2292049143816081686268114381608E
:100F00002168CA6818239A43CA602168CA68A3681E
:100F10001A43CA6081680122520691438160816848
:100F2000A28E52061143816020688168C90004D4F2
:100F3000816801221207114381602068C168394A23
:100F40001140C1602069E168022825D000200143DA
:100F5000204620300278037B52035B001A43114382
:100F6000226B1143A26992031143E269D203114338
:100F70002268D3681943D160616A0A46FF3AC23ACF
:100F800005D0A26A11432268D3681943D160427820
:100F90000121012A02D00BE00420D8E700780028C4
:100FA00023D0606D202210436065A06D0843A065CA
:100FB000E06B012820681FD00169C90703D00169CF
:100FC00049084900016120684169C908C9004161B7
:100FD00020684169A26B11434161A565606D80087D
:100FE0008000401C6065002070BD2068C26801233D
:100FF0001B041A43C260DBE70269FF239B009A438C
:10100000026120680269236CA66C1A43636C334347
:101010001A430261206802690A430261D3E70000B3
:10102000002701401902FEFF7047000070B586B02E
:10103000064614216846FFF7CEF81E4930688842FC
:1010400035D11D49486B4A1510434863C86A0122CF
:101050001043C862C86A0025104005909120009096
:1010600003200190052069460295000700F0CAF9A7
:101070001248134C21C4256080206560A0604000A8
:10108000E06065618000A56120610D48083C00F0CA
:1010900017F9002801D0FFF7B0FDF46400221146D3
:1010A0000C20A66200F048FD0C2000F039FD06B0CF
:1010B00070BD000000240140001002400800024002
:1010C000D4000020F8B5044600680F468168164633
:1010D000490739D425464035297C012934D00121DE
:1010E0002974C2680A43C260E069012804D020461E
:1010F000FFF7ACFB002826D1606D14490840FF21A2
:101100000131084360650020A0652874E16C104837
:10111000C862E16C0F480863E16C0F4848632168BE
:101120001C2008602068416810221143416021683A
:1011300033463A464031E06C00F00AF921688A688B
:1011400004231A438A60F8BD0220F8BDFEF1FFFFB8
:101150002F070008B70700089D070008F8B50646E6
:1011600004464036307C012807D0012737742046DA
:10117000FFF7B0FA050002D028E00220F8BD206891
:10118000C16849084900C160E06C2521095C022959
:1011900007D100F01FF8050003D0606D402108431F
:1011A000606520684168102291434160002D20460F
:1011B00002D0FFF717FB09E0FFF714FB050005D18C
:1011C000606DFF2101318843384360650020307431
:1011D0002846F8BD30B5014620314A790023022A5D
:1011E00004D00422C2630B71012030BD0268146870
:1011F0000E25AC431460026814686408640014602F
:10120000446C1C22144001221546006CA540456028
:101210004A7118460B7130BDF0B4016C0D6801685D
:101220000C68466C1C2304221E401746B7402F4210
:101230000ED067070CD50C68A40602D40C68944342
:101240000C60416C19408A40016C4A60016B1AE0E5
:101250000227B74002462F402032002F17D0A707A1
:1012600015D50C68A40605D40C680A25AC430C609F
:1012700001215171446C02211C40036CA140596052
:1012800000211171C16A002918D0F0BC0847082755
:10129000B7402F4212D0240710D50C680E25AC435E
:1012A0000C60446C01211C400B46A340046C63603D
:1012B000C163517100211171416BE4E7F0BC7047CB
:1012C00070B504003CD01F48256814212818FEF78B
:1012D0000FFF800060641C482064022120462030FB
:1012E0000246417129681948E3680140A0686669AF
:1012F0001843236933431843A3691843E369184328
:10130000236A1843084328600121A06889038842A2
:1013100010D00D488030836A656C1C210D400F266B
:10132000AE40B3438362656C63680D40816AAB4035
:101330000B4383620020E06301215171107170BD85
:10134000012070BDF8FFFDBF000002400F80FFFFCD
:10135000F8B504468C46203001790025012909D0D2
:101360000126067141790027012905D00771022560
:101370002846F8BD0220F8BD02214171E7632068CC
:10138000016849084900016061462046FFF71AFCE0
:10139000206B00282068016801D00E2205E004229D
:1013A00091430160206801680A22114301602068AE
:1013B000016831430160DBE770B5044600F006F9CF
:1013C0000546601C02D004480078241800F0FEF89E
:1013D000401BA042FAD370BD10000020022802D1A9
:1013E00001490120C87070470000002010B5044971
:1013F0004A69024202D04861FFF7F0FF10BD0000C9
:1014000000040140F8B5002303240125B8E032466A
:101410002E469E40B446324079D00E79B607B60FBC
:10142000012E01D0022E17D186682746B6465E00EF
:10143000B74000967646BE43B646CF68009EB7409A
:1014400076463743876046686746BE430F79FF0696
:10145000FF0F9F40374347600E79F643B6070ED023
:10146000C6682746B4465E00B646B7406646BE43E9
:10147000B4468F687646B74066463743C7600E79F4
:10148000B607B60F022E14D1DE08B6003618009645
:10149000366A5F07B446FE0E0F27B646B74066466B
:1014A000BE43B4460F697646B74066463743009E52
:1014B000376206682746B4465E00B646B7406646C1
:1014C000BE430F79B446BF07BF0F7646B7406646A6
:1014D000374307604E68B603B60F50D02B4F7E6B74
:1014E0002E437E639F082A4EBF00BE190096B66841
:1014F0000F27B4469E07360FB646B7406646BE4332
:1015000005273F07B446B84202D1002710E036E075
:10151000204FB84201D101270AE01F4FB84201D144
:10152000022705E01D4FB84201D1052700E006273C
:101530007646B74066463743009EB760184EB66899
:101540004F689643FF0200D51643154FBE60FE68F4
:101550004F689643BF0200D51643114FFE607E6868
:101560004F689643BF0300D516430D4F7E603E681B
:101570004F689643FF0300D51643094A16605B1C6B
:101580000A681646DA4000D041E7F8BD0010024074
:10159000000001400004005000080050001C0050F2
:1015A000000401400069084000D0012070474269F2
:1015B00013460B401B0491430B4383617047002A81
:1015C00001D08161704781627047000001488068E6
:1015D000704700001000002070B50246403253787A
:1015E000202B1CD11378012B19D001231370242434
:1015F0005470046825689D432560046825681E03AF
:10160000B5432560046825680D43256000680168BE
:1016100019430160202050700020107070BD02201E
:1016200070BD70B5024640325378202B1BD1137821
:10163000012B18D0012414702423537003681D68F3
:10164000A5431D6005682B680F263602B3430902C7
:10165000194329600068016821430160202050700F
:101660000020107070BD022070BD000070B5040035
:1016700006D02546403568780026002802D005E0CF
:10168000012070BD2E70204600F0EAF8242068701A
:10169000206801684908490001600F216068090657
:1016A00088432168086121688A680120C003824359
:1016B0008A60E1680129A1682FD02122920211439A
:1016C000226891600121E268C902022A22685368F7
:1016D00025D08B43536021684A68124B1A434A60F5
:1016E0002168CA688243CA60616920690843A169A8
:1016F000090208432168C860216AE069084321683B
:10170000086020680168012211430160666420209E
:1017100068702663AE70002070BD0143D0E70B43B4
:10172000D8E7000000800002FFB5054604464035BA
:10173000687881B0202877D12878012874D00120DA
:101740002870FFF743FF0746012200901923D103B9
:10175000204601F099F8002851D12120687010200E
:10176000A8700026666403986062049961856663C8
:10177000628D3949FF2A03D9FF222285CB0206E078
:10178000628D228501235B061204120C0FD02268A1
:1017900000789062606A401C6062608D401E6085C7
:1017A000208D401E2085401CC2B2009101E0002225
:1017B00000912046029901F051F816E001F0C8F8B6
:1017C00000281CD1606A216800788862606A401C29
:1017D0006062608D401E6085208D401E80B2208535
:1017E000618D002901D000280CD0608D0A99002855
:1017F0003A462046E2D101F080F800281DD00120B1
:1018000005B0F0BD00970022802120460A9B01F020
:101810003BF80028F3D1608DFF2806D9FF222285EE
:1018200001231B060096C4E714E0608D2085009616
:10183000208D0123C2B25B06BBE721682020C8616E
:1018400021684A68054B1A404A606870AE702E7075
:101850000020D5E70220D3E70020008000E800FE4A
:1018600010B586B0044614216846FEF7B4FC104952
:10187000206888421AD10F4CE16A02200143E162DC
:10188000E16A01400591C0200090122001900020E3
:101890000290032003900120049069460648FFF758
:1018A000B1FDA06B012149050843A06306B010BD3E
:1018B00000540040001002400004005002488168BB
:1018C00002788918816070471000002010B5084820
:1018D00000240168402211430160032000F00AF84F
:1018E000002801D0012401E000F004F9204610BDD9
:1018F0000020024070B504460D4D7D202978C000BF
:10190000FEF7F6FB01460B480068FEF7F1FB00F01E
:101910002FFE002809D1042C07D200222146401EA8
:1019200000F00AF900206C6070BD012070BD00005D
:10193000100000201C00002070477047704770475F
:101940007047704710B5044600680168C943C9076D
:1019500008D18168C943C90704D1012141602046EB
:10196000FFF7ECFF20680168C943890708D4816844
:10197000C943890704D4022141602046FFF7DCFFF8
:1019800020680168C943490708D48168C9434907E9
:1019900004D404214160204600F0AAF820680168C0
:1019A000C943090708D48168C943090704D4082139
:1019B00041602046FFF7C3FF20680168C943C9069C
:1019C00008D48168C943C90604D410214160204667
:1019D000FFF7B3FF20680168C943890608D481680E
:1019E000C943890604D4202141602046FFF7A9FF9E
:1019F00020680168C943490608D48168C94349067B
:101A000004D4402141602046FFF79AFF10BD00003A
:101A1000F8B5040005D025462035A87B002802D063
:101A200006E00120F8BD00206873204600F048F869
:101A30000220A8732068C26884466368012B04D022
:101A40000120A16AC005814201D11E2082431948AC
:101A50006169814201D0184802401848A6680240D6
:101A600018463043676A266A3E433043A66A3043CD
:101A70001043002B18D0012B03D00122D20596422F
:101A800003D12369E2681A4310430A4A914205D000
:101A9000A2691143E2690243084610436146C860E7
:101AA0000120A8730020F8BD2369E2691A4310439E
:101AB000E3E70000FFFF00003F1FFFFFFEF119FFFB
:101AC00010B50068084988420CD10848816BC204EF
:101AD00011438163002211460D2000F02DF80D20E6
:101AE00000F01EF810BD0000007C00400010024015
:101AF000704700001CB50020009001900748416B22
:101B0000012211434163816B0204114381636846E2
:101B100000F016F800F048F81CBD0000001002406C
:101B2000002805DBC106C90E012088400149086074
:101B30007047000000E100E010B501F0B9FB10BDF6
:101B4000174A1168E0239943036819431160154946
:101B50004B680122120493434B600B6893430B6064
:101B6000CB689343CB608B6893438B604368DB0304
:101B700002D50B6813430B6043689B0302D54B6887
:101B800013434B600379DB0702D08B6813438B60F0
:101B90000079800702D5C8681043C860704700000C
:101BA0000070004000040140024801681022114307
:101BB0000160704700700040F8B5044600780027C7
:101BC000504D800674D54F4E403EB06BC00004D4DB
:101BD000B06BA9050843B06301274B480168C905EC
:101BE00011D40168821511430160FFF7EFFC0090EA
:101BF00005E0FFF7EBFC0099401A642837D842480B
:101C00000068C005F5D532680321090560680A40FF
:101C10000140914208D08103890F032904D1316822
:101C2000890301D50120F8BD2A69032109040A406E
:101C300022D0084090421FD02078800631D52869F4
:101C40002A6988430121C9040A432A612A698A430F
:101C50002A612861C0050FD5FFF7B8FC009008E0A5
:101C6000FFF7B4FC0099411A2848814201D90320AA
:101C7000F8BD28698005F3D52078800611D5616804
:101C80008803800F032805D1326800058243014094
:101C90000A43326028690322616812041140084334
:101CA0002861002F04D0B16B012000078143B1638C
:101CB0002078800705D5E8680C218843A16808438F
:101CC000E8602078400706D5E86803218902884348
:101CD000E1680843E8602078000706D5E86803213A
:101CE0000903884321690843E8602078000606D587
:101CF000E86803218904884361690843E86000209B
:101D0000F8BD000040100240007000408813000041
:101D1000F8B50E46050038D05E480068C007C00F11
:101D2000B04214D25B4C2068400840003043206031
:101D3000FFF74CFC074605E0FFF748FCC11B56487F
:101D400081427AD82068C007C00FB042F4D1287809
:101D5000524C800705D5E068F0218843A968084304
:101D6000E0602878C00752D06868022806D00328AF
:101D700007D0216801280AD0890504E02168890379
:101D800001E021688901002903DB0120F8BD490732
:101D9000F9E7E168890889000143E160FFF716FC73
:101DA0000746686802280AD0032814D001281ED0EC
:101DB00029E0FFF70BFCC11B374881423DD8E068A2
:101DC0000007800F0228F4D121E0FFF7FFFBC11BC1
:101DD0003148814231D8E0680007800F0328F4D1F0
:101DE00015E0FFF7F3FBC11B2B48814225D8E068C3
:101DF0000007800F0128F4D109E0FFF7E7FBC11BC2
:101E00002548814219D8E0680007800FF5D12148A4
:101E10000168C907C90FB14217D9016849084900CB
:101E200031430160FFF7D2FB074608E005E0FFF70A
:101E3000CDFBC11B1848814201D90320F8BD1548CC
:101E40000068C007C00FB042F1D12878400706D51E
:101E5000E068072109028843E9680843E0602878C0
:101E6000000707D5E0680721C90288432969C9002E
:101E70000843E06000F03AF8E168094A0906090FF2
:101E8000515CC8400749086007480068FFF732FD09
:101E9000F8BD00000020024088130000001002403E
:101EA0005A3D00081C000020140000200448054989
:101EB0000068C968044A4905490F515CC840704729
:101EC0001C00002000100240733D00080448054932
:101ED0000068C968044A8904490F515CC8407047CA
:101EE0001C00002000100240733D000810B5184A85
:101EF000D1680C20084004280BD0082810D00C28EA
:101F000010D050680004410F0120C003491C8840D4
:101F100010BD1068C00601D50E4810BD0E4810BD9A
:101F20000E4810BD88020E4B000F185C0902D368E2
:101F3000890F491CDB0301D5084A05E01268D20667
:101F400001D5044A00E0044A5043FEF7D1F810BD21
:101F50000010024000093D000024F40000127A0045
:101F60006A3D0008FEB505007ED0F74CE7680C20FE
:101F7000E66807400120000406402878C00747D0E3
:101F8000082F05D00C2F0AD101200004864206D16B
:101F9000206880033CD568680028E5D038E001203F
:101FA00069680004814203D121680143216011E086
:101FB000052301221B0492049942216802D1114396
:101FC0002160F1E781432160216801400091206890
:101FD00090432060686800280DD0FFF7F7FA009062
:101FE00005E0FFF7F3FA0099401A64287ED82068CC
:101FF0008003F6D50CE0FFF7E9FA009005E0FFF763
:10200000E5FA0099401A6428F0D820688003F6D4D5
:10201000287880075DD5E868810604D522682021EC
:102020000A43226088430923042F0DD00C2F01D1CD
:10203000002E09D000283CD021689943014321603B
:10204000FFF7C4FA064628E02168490701D50028B1
:102050008AD061681F22120291432A691202114339
:1020600061602168994300E091E101432160FFF73D
:102070003DFFE16809060A0FB449895CC840B449CC
:102080000860B4480068FFF735FC002874D120E0F0
:10209000FFF79CFA801B0228A8D820684007F7D5D4
:1020A00060681F21090288432969090208436060AA
:1020B0000FE02068400840002060FFF787FA0646DE
:1020C00004E0FFF783FA801B02288FD820684007BE
:1020D000F7D42878C00661D5002F0DD0A869002854
:1020E0004BD02068FF210131084300E0C6E02060AA
:1020F000FFF76CFA06462DE02068800502D5A86936
:102100000028A5D06068072149038843296A08434D
:1021100060606068297F0002000A09060843606069
:10212000286A410B0120C003491C8840E168090668
:102130000A0F8649895CC84085490860854800685F
:10214000FFF7D8FB002817D128E0FFF73FFA801BE4
:102150000228A1D820688005F7D5606807214903C7
:102160008843296A084360606068297F0002000A8A
:1021700009060843606011E0E1E02168FF200130BA
:1021800081432160FFF722FA064604E0FFF71EFABA
:10219000801B022872D820688005F7D428786E4EFC
:1021A000000724D568690028306910D00121084350
:1021B0003061FFF70BFA009005E0FFF707FA00998E
:1021C000401A02285AD830698007F6D50FE0400837
:1021D00040003061FFF7FAF9009005E0FFF7F6F9EB
:1021E0000099401A022849D830698007F6D4287827
:1021F000400765D500200290A06BC00006D4A06BFC
:10220000012109070843A063012002905348016897
:10221000C90511D40168821511430160FFF7D6F991
:10222000009005E0FFF7D2F90099401A642825D8FC
:102230004A480068C005F5D5FF20AA6801308242EF
:1022400003D131690143316111E001218902002A82
:1022500007D005231B029A4203D132690A43326137
:10226000EFE7326982433261306988433061A868A0
:1022700000280FD0FFF7AAF9009007E05EE0FFF713
:10228000A5F90099411A3648814257D8306980052E
:10229000F5D50DE0FFF79AF9009006E0FFF796F903
:1022A0000099411A2E48814248D830698005F5D4FA
:1022B0000298002804D0A06B012109078843A0637D
:1022C000686A002865D00C2F4CD0012636060228FB
:1022D000206805D0B0432060FFF778F905462FE06D
:1022E000B0432060FFF772F9074604E0FFF76EF98C
:1022F000C01B022822D820688001F7D4E96AA86AA6
:10230000E2680843296BFD231B049A4311430843E9
:10231000E060206830432060FFF758F9054604E08C
:10232000FFF754F9401B022808D820688001F7D530
:102330002FE0FFF74BF9401B022801D90320FEBD17
:1023400020688001F5D424E0001002405A3D0008C6
:102350001C000020140000204010024000700040CB
:10236000881300000128EAD0E06801210904AA6A64
:10237000014091420BD10F218904EA6A0140914248
:1023800005D1032189050840296B884201D001202D
:10239000FEBD0020FEBD0000F7B505460446203511
:1023A000287882B0012814D001202870022068709B
:1023B0002168CA20486221685320486220688068EA
:1023C00000264005FF27002812DAFFF7FFF80090EB
:1023D0000AE0022005B0F0BDFFF7F8F80099411AB5
:1023E0007D20C00081421CD82068C0684007F3D41B
:1023F00020688268012189028A4382602068C1685E
:1024000080221140194A8918C160FFF7DFF8009057
:102410000DE0FFF7DBF80099411A7D20C0008142F2
:1024200005D920684762032068702E70D2E72068C3
:10243000C0684007EDD520688168C908C90081607F
:1024400020688168049A114381602168039848617B
:1024500020688168012292021143816020684762EE
:10246000012068702E700020B4E700007FFBFFFFA2
:1024700070B5040005D0254620356878002802D0C4
:1024800006E0012070BD00202870204600F046F8CC
:10249000022068702068C168C943C90637D5CA21BF
:1024A0004162216853204862204600F0EDFB00287D
:1024B00027D120688168184A1140816021688868A6
:1024C0006268A369104322691A4310438860216837
:1024D000E0680861206801692289120411430161E2
:1024E000204600F0F4FB00280BD12168CA6C92084A
:1024F0009200CA646269E16911432268D36C19438E
:10250000D1642268FF215162002801D070BD0020F3
:102510000121697070BD0000BFFF8FFF0068054991
:10252000884205D1044801690122920411430161E6
:1025300070470000002800404010024070B504467B
:1025400021680A48C860FFF741F87D260546F60075
:1025500006E0FFF73BF8401BB04201D9032070BDF5
:102560002068C0688006F4D5002070BD5FFF0100C0
:10257000094910B5401E884201D9012010BD074C01
:1025800060610321081F00F093FE0020A061072076
:102590002061002010BD0000FFFFFF0000E000E010
:1025A00010B5040003D0E06F002802D007E001203E
:1025B00010BD002178200155204600F027F8242086
:1025C000E06720680168490849000160606A0028E6
:1025D00002D0204600F0E7FB204600F0DBFC01289B
:1025E000E6D0206841680922D20291434160206808
:1025F00081682A2291438160206801680122114389
:102600000160204600F034FC10BD000010B586B01B
:10261000044614216846FDF7DEFD11492068884212
:102620001CD11048816B0122520411438163C16A9D
:1026300001221143C162C06A69461040059003201F
:10264000400200900220019000200290032003909D
:102650000420049005200007FEF7D4FE06B010BD4C
:102660000044004000100240FFB50446C06F83B034
:1026700017460D46202802D0022007B0F0BD002DDD
:102680000BD0002F09D00120A1680003814206D1A0
:102690002069002803D1E80701D00120EDE70021DF
:1026A000842001512120E067FEF790FF2646403646
:1026B0000190378277820120A1680003814202D114
:1026C0002069002802D02F46002511E000270FE0E6
:1026D00000228021204600F04BFD002815D1002F5C
:1026E00017D02168387888627F1C708A401E7082FB
:1026F000708A019B002806980090E9D100224021B1
:10270000204600F035FD00280AD02020E067032095
:10271000B3E728882168C005C00D8862AD1CE4E7D6
:102720002020E0670020A8E7FEE701688A69D2431D
:10273000920701D400228A6200688169C943C907EF
:1027400003D081690122114381617047F7B50446C6
:10275000006882B0816900262746C90640373546A1
:102760000092002945DA1021C16132E00398401C33
:102770002FD0FEF72BFF0099411A0398814201D810
:10278000002826D120684168012292031140BA78BE
:102790008369DB431B0417D401239B03994213D0A5
:1027A000202A11D0416819434160FEF70FFF0090C5
:1027B0000AE0FEF70BFF01460098081A192803D912
:1027C00020200543012604E020688069C04380067C
:1027D000EFD420688069C043800602D5002EC5D0A2
:1027E00004E0002E02D121682020C86104200543A6
:1027F000012621688869C20504D501221543120209
:10280000CA610126410508D508210D43CA01216886
:10281000CA610126800502D40AE0800506D502209F
:10282000054321680002C861012601E0002E0FD097
:102830002046FFF77AFF20684168074A114041604F
:10284000606C28436064202078700020B870387075
:10285000304605B0F0BD000000E800FE890510B567
:10286000890D12041143029C194302682143490057
:1028700050684908630D034C234398430843506054
:1028800010BD0000FF63FF03F8B51D4617460E4656
:10289000044626E029462046069AFFF757FF0028FF
:1028A00001D00120F8BD681C1BD0FEF78FFE0699F1
:1028B000401AA84201D8002D13D120688169304602
:1028C00088430CD00020B8420BD1616C202001431A
:1028D0006164403460700020A0702070E1E7012046
:1028E000F1E7206881693046884304D00020B8426F
:1028F000D0D00020F8BD0120F9E770B516460D468E
:1029000004461EE0324629462046FFF71FFF0028F6
:1029100001D0012070BDFEF759FE801BA84201D8EE
:10292000002D0ED120688069C043800609D5616CF6
:10293000202001436164403460700020A07020704A
:10294000E7E720688069C0438006DBD4002070BDC3
:1029500070B516460D46044620E03246294620460C
:10296000FFF7F4FE002801D0012070BD681C15D0CF
:10297000FEF72CFE801BA84201D8002D0ED1206846
:102980008069C043800709D5616C202001436164E0
:10299000403460700020A0702070E5E720688069F6
:1029A000C0438007D9D4002070BD000010B5024894
:1029B000FEF7C8FF10BD0000700100201CB500210B
:1029C00028480091264A019102600722C1639204BF
:1029D0004260816001240322046182630246C16077
:1029E00020321470FF235170C2334362816214732A
:1029F00001638161082244634261C161FEF730FADC
:102A0000002801D0FEF7F9F8012000030190694683
:102A100000941448FEF7F4F8002801D0FEF7EDF812
:102A20001148009069460F48FEF7EAF8002801D0E7
:102A3000FEF7E3F80D48009069460A48FEF7E0F813
:102A4000002801D0FEF7D9F80948009069460548EA
:102A5000FEF7D6F8002801D0FEF7CFF81CBD000025
:102A60000024014078000020100000108000001CAD
:102A70000000044808B50848016B012211430163B6
:102A8000006B10400022009011460920FFF754F817
:102A90000920FFF745F808BD00100240F0B587B0E7
:102AA00014216846FDF797FB2E48C26A04210A43A9
:102AB000C262C26A0A400592C16A01252943C16205
:102AC000C16A29400591C16A02263143C162C06AC8
:102AD000002230400590052023490007FEF76FFDD6
:102AE000002220212148FEF76AFD032080030327EE
:102AF000002400906946019702941D48FEF782FC6D
:102B000021200004019005206946009602940007E8
:102B1000FEF778FC14480090052002946946019560
:102B200003940007FEF76EFC1248009005206946EA
:102B3000019702940007FEF765FCFF20203000900B
:102B40006946019702940948FEF75CFC202000903A
:102B500002946946019503940448FEF753FC07B0BC
:102B6000F0BD00000010024004800000000400508E
:102B7000000800506819000010B51448124901609F
:102B8000134941600A2181600121C1600021016176
:102B900041618161C1610162FEF768FD002801D0D9
:102BA000FEF72BF800210948FEF716FD002801D09A
:102BB000FEF723F800210548FEF733FD002801D079
:102BC000FEF71BF810BD0000005400401C0100205F
:102BD000875C800010B50A48084901600021416007
:102BE00081600162074A416242618162FEF710FF23
:102BF000002801D0FEF701F810BD0000007C004065
:102C000070010020FFFF000010B50F480D49016062
:102C10007F2282600021416001614161FF22816168
:102C2000C260C161FFF724FC002801D0FDF7E5FF79
:102C300004220A210448FFF7AFFB002801D0FDF76A
:102C4000DCFF10BD00280040A001002010B50C489A
:102C50000A490160E1214902416000218160C160AF
:102C600001618161C1610C22016242614162FFF731
:102C700097FC002801D0FDF7C0FF10BD00440040C4
:102C8000C4010020FEE77047F8B50446006800253F
:102C9000C168490619D4C16880221143C160FEF79A
:102CA00095FC27460646203709E0FEF78FFC811B7E
:102CB0007D20C000814202D904207870012520685F
:102CC000C068400601D4002DEFD02846F8BD70B58D
:102CD000044600680025C16880229143C1602068D5
:102CE0008068800608D42046FFF728FC002803D01F
:102CF0000420203460700125284670BD704710B54F
:102D0000FEF7DCFD10BD000010B598B03421684618
:102D1000FDF761FA142113A8FDF75DFA18210DA83B
:102D2000FDF759FA1E4801680322D2029143C214EA
:102D3000891801600A2000901020049002200121CF
:102D400009900024400505910C9003910A940B947E
:102D50006846FFF707F9002801D072B6FEE70F209A
:102D6000139003201490159416940121179413A81E
:102D7000FEF7CEFF002801D072B6FEE7AA200D9024
:102D8000012040040E900F94119412940DA8FEF7A8
:102D900013FF002801D072B6FEE718B010BD000086
:102DA00000700040704710B5818C090707D5016895
:102DB0004A680123DB039A43436B1A434A60818CC0
:102DC000C90707D001684A6801235B049A43836AF4
:102DD0001A434A60818C890707D501684A68012334
:102DE0001B049A43C36A1A434A60818C490707D57A
:102DF00001684A6801239B049A43036B1A434A60A3
:102E0000818CC90607D50268916801231B03994389
:102E1000836B19439160818C890607D501688A68A4
:102E200001235B039A43C36B1A438A60818C490672
:102E300012D503685A6801210905046C8A432243AC
:102E40005A60026C8A4207D10268516803235B050D
:102E50009943436C19435160818C090607D5016879
:102E60004A680123DB04806C9A4302434A6010BD28
:102E7000FEB507460025803704467D60FEF7A6FBB9
:102E8000019020680068264600076036002819DA9D
:102E9000274800900121002249052046019B00F0AF
:102EA00067F900280ED0EFF31080012181F310881C
:102EB00021680A6880239A430A6080F310882020E2
:102EC000E06729E020680068400728D5184800908E
:102ED0000121002289052046019B00F049F90028C4
:102EE0001DD0EFF31080012181F3108821680A685A
:102EF000FF2321339A430A6080F31088EFF3108098
:102F0000012181F3108821688A68520852008A6082
:102F100080F310882020386035760320FEBD202005
:102F2000E06738602566656635760020FEBD0000E6
:102F3000FFFFFF0110B5EFF31081012282F310882B
:102F400002681368FF242134A343136081F31088BF
:102F5000EFF31081012282F31088026893685B0806
:102F60005B00936081F31088016E01290BD1EFF3B0
:102F70001081012282F31088026813681024A34391
:102F8000136081F31088202280210A5000210166FD
:102F9000816610BDF8B50446016880682369E6695A
:102FA000184363690025334318436A4A0B686A4E25
:102FB000334003430B602068416803231B0399439C
:102FC000E368194341602168A069914201D0236AF6
:102FD00018438B680B263602B34303438B605F496B
:102FE00023685F488B420AD1C0680C21084027D073
:102FF000042829D0082825D00C2811D10EE09342AE
:103000000ED1C16803208002014019D00120800246
:10301000091A19D0091A15D0814201D1082700E0F8
:1030200010274F494F4840398600934234D1002F32
:103030000CD0022F0DD0042F10D0082F7ED128E005
:103040000027EEE70227ECE70427EAE7FEF72EFF6A
:1030500006E00968C90605D4304603E0FEF746FFDE
:10306000002872D0626851005118814266D811035D
:10307000814263D3010E06025008002330185941E3
:10308000FDF760F803210902374A411A91425AD9E3
:1030900054E00120C003E5E70122E369D203934233
:1030A0002AD13B0000F0F7F80906090C4A114A4AF8
:1030B0004A264A00FEF7FAFE09E0FEF707FF06E09F
:1030C0000968C90605D4304603E0FEF70FFF002863
:1030D0003BD0616840004A088018FDF709F80146B6
:1030E000224A1039914229D8511C01400007400F53
:1030F000084328E01046ECE73B0000F0CCF8090656
:10310000090C1F111F1F1F211F00FEF7CFFE09E032
:10311000FEF7DCFE06E00968C90605D4304603E088
:10312000FEF7E4FE002810D061684A081018FCF78A
:10313000DFFF02460D49103A8A4203D9012504E017
:103140001046F1E780B22168C8600020A066E06602
:103150002846F8BD00480040F369FFEF00440040F6
:103160004010024000093D00FFFC0F00EFFF00008F
:10317000FFB506468036054681B00F4604466035E9
:1031800034E00A98401C31D0FEF720FA0499411A25
:103190000A98814218D8002816D02068016849078B
:1031A00024D5802F22D0402F20D0C169C9430907E0
:1031B0000CD4082707622046FFF7BCFE776000208A
:1031C0002876012005B0F0BD0320FBE7C069C043AD
:1031D00000050BD401202168C00208622046FFF7D9
:1031E000A9FE2020706000202876EDE72068C169E4
:1031F0003846884305D0002103988142C1D0002081
:10320000E0E70121F8E700000FB41CB502460020FA
:1032100007AC00290BD0491E01910092064B6A466B
:103220002146069800F030F9009A002111701CBC6C
:1032300008BC04B018470000C13B00087CB5154627
:10324000024600201C4600290BD0491E0092019125
:10325000044B6A462146284600F016F9009A0021E0
:1032600011707CBDC13B00082021020C01D010214F
:103270001046020A01D010460839020901D0104652
:10328000091F820801D01046891E420801D0881EFD
:103290007047081A704730B47446641E2578641C61
:1032A000AB4200D21D46635D5B00E31830BC18479B
:1032B0008307FF22DB0E9A408907090E99400028F8
:1032C00008DB830809489B001B18186890430843D3
:1032D000186070470007000F0838830804489B00F7
:1032E0001B18D86990430843D861704700E400E098
:1032F00000ED00E002E008C8121F08C1002AFAD160
:1033000070477047002001E001C1121F002AFBD165
:1033100070470000F0B51FB486B00998089A030DF5
:103320000021024314D05148514A18185043051443
:103330001198012810981AD0281A401C00264D4FC9
:103340004D49009601910490002812DA444211E0A0
:103350001198012449A3012801D11098C14306986E
:10336000119A84600360C26041600BB0F0BD4042BE
:10337000E4E70446210500203F4A001C5141039127
:10338000029012E0E00707D032463B4601990098D0
:10339000FDF700F80191009032463B461046194671
:1033A000FCF7F8FF06460F466410002CEAD104989B
:1033B000039B0028029A0999089806DAFCF7EAFFAD
:1033C000019B009AFCF7E6FF05E0FDF74BF8019B37
:1033D000009AFDF747F804460E460022284BFDF7F9
:1033E000D9F803D80020C043014607E00022254B4E
:1033F00020463146FCF71CFFFDF7ACF8102409E02D
:10340000002C0ADB0A220023FCF79CFE079B3032CB
:103410001A55641E02460A43F2D11122641C079B0E
:10342000121B1C19119B012B03D0012308430ED141
:103430000AE0084304D0112010900020119077E793
:103440001098151A6D1E0BE01098824202DD0023C1
:103450006D1C03E0824201DA00236D1E002BEED0CA
:10346000069811998260C16030C07EE701FCFFFFC1
:10347000104D0000000014400000F03F300000003C
:103480000000F0430000E03FFFB597B0064600257E
:1034900018E2252877D100242746FD49049400E04E
:1034A0000443761C32780120203A90400842F7D13C
:1034B00030782A280ED00222307801463039092986
:1034C00016D804990A235943303940181443761CFE
:1034D0000490F1E7189802C804911890002904DAC2
:1034E0000120400304434842049002200443761C18
:1034F00030782E2814D1042004437078761C2A28B2
:1035000009D11898761C80C8189009E00A214F4309
:10351000303FC719761C3078014630390929F5D972
:1035200030786C2810D006DC4C281AD068280ED0D1
:103530006A2817D104E0742813D07A2812D110E039
:103540000120400504430CE00121090501E00321AD
:1035500009050C437178814203D10120000524182C
:10356000761C761C3078119066280BD013DC582816
:103570007DD009DC00287BD04528F6D04628F4D041
:1035800047281AD1A5E118E0632835D0642870D007
:10359000652812D19DE170286CD008DC6728F1D035
:1035A00069287BD06E280DD06F2806D1BAE0732829
:1035B0002ED0752871D0782859D01A9A1999904729
:1035C0006D1C7EE16002400F022809D003280DD057
:1035D0000428189801680DD00D60001D189070E146
:1035E0001898EA1701680D604A60F6E718980168B4
:1035F0000D80F2E70D70F0E718986A4601781172B5
:10360000001D18900020507202A80090012005E0D3
:10361000189802C8189000200091C04361070DD58A
:10362000002101E00199491C0191B94212DA81425D
:10363000F8DB009A515C0029F4D10BE0002101E095
:103640000199491C01918142FADB019A0099895C38
:103650000029F5D1019904981A9B471A214638464A
:10366000199A00F097FA0199401945180BE04FE0BC
:103670002CE113E04EE0009800990078491C00917D
:103680001A9A199990470198401E0190401CF2D156
:10369000214638461A9B199A10E137E00A2000218A
:1036A000009001916002410F022907D0189A01CAC7
:1036B0001892C2179446032908D00AE01898C01D32
:1036C000C108C90005C91891944607E000B2C217A5
:1036D0009446042902D140B2C1178C4600226146AB
:1036E000944506DA0A460021404291418C462D213C
:1036F00002E0210504D52B216A461173012103E064
:10370000E10701D02021F7E7029155E00A200AE005
:10371000102008E0102000900021042004430191B3
:10372000082703E008200021019100906002410F6A
:10373000022907D0189A01CA189200229446032938
:1037400008D008E01898C01DC108C90005C9189123
:10375000944603E080B2042900D1C0B20021029156
:10376000210729D51199702906D0009A1021019BB3
:103770004A401A4305D00EE040216A4611730121E8
:1037800008E06146014306D030216A461173119961
:10379000517302210291009A0821019B4A401A4369
:1037A0000AD16146014301D1610705D530216A463E
:1037B000117301217F1E02911199582904D035A15E
:1037C0000E910DA90D910DE037A1F9E76146019B1E
:1037D000009AFCF7B7FC0E9B8C469B5C0D9A521E20
:1037E0000D92137061460143F0D10D9805A9081A96
:1037F00020300190600703D501200004844300E0DD
:1038000001270198874201DD381A00E00020019964
:1038100000904118029809180498401A0490E00397
:1038200006D421461A9B199A049800F0B3F9451959
:10383000002706E003A81A9AC05D199990476D1CED
:103840007F1C02988742F5DBE0030CD521461A9BCA
:10385000199A049800F09EF9451904E01A9A30204C
:10386000199990476D1C0099481E00900029F5DCBD
:1038700008E00D980D990078491C0D911A9A199934
:1038800090476D1C0199481E01900029F1DC63E10D
:103890000928010030313233343536373839616226
:1038A00063646566000000003031323334353637EA
:1038B00038394142434445460000000000F05AF9BF
:1038C0004519761C3078002800D0E2E528461BB068
:1038D000F0BD600700D406271898C01DC108C900B4
:1038E00048680A680831C30FDB071891190001D036
:1038F0009CA108E0210501D59BA104E0E10701D0CE
:103900009AA100E09AA1430011985B0810916528E4
:103910000CD006DC452809D046281DD0472841D1C7
:1039200041E0662818D067283CD13CE00021112FE7
:1039300001DB112000E0781C0191009008A911A87A
:10394000FFF7E8FC139905910021119A15927F1C4D
:1039500012980197009150E00120C00703900120C8
:10396000019008A9009711A8FFF7D4FC139A1499A5
:1039700005920022119B009212981593059A0192CC
:10398000002901D0104602E0791C40180190381A35
:1039900001D5019804E04042401E0090781C01903F
:1039A000C01B029043E0012F00DA01270021112FF4
:1039B00001DD112000E038460191009008A911A80E
:1039C000FFF7A8FC13990591119A002112981592FE
:1039D0000091019721070CD40599B94201DB0199A7
:1039E00000E00191012904DD159A491E515C30293E
:1039F00006D0B84201DA011D05DA0121029115E075
:103A00000199491EEDE7002805DC00994118009155
:103A10000199091A03E0019A411C914200DD0191CC
:103A20000099401A401C02900120C0070390200713
:103A300006D402990198814202DB0020C043029023
:103A400000206946C87707AF012103980337C907EB
:103A5000884224D0022011902B2012900398002835
:103A60000CDA404203902D20129007E00A210398BF
:103A7000FCF73EFB30317F1E039039701199481ED0
:103A800011900029F2DC03980028EFD1791E1298DA
:103A900008703078202108404530BF1E387006A8D5
:103AA000C01BC01D039010980078002800D0012092
:103AB000019941180298C017091803980918049829
:103AC000401A401E0490E00306D421461A9B199A1E
:103AD000049800F05FF8451910980078002803D08A
:103AE0001A9A199990476D1CE00324D521461A9B18
:103AF000199A049800F04EF845191CE00098002827
:103B000007DB00990598884203DD1598405C1999F8
:103B100001E0199930201A9A904700986D1C401CBA
:103B200000900298401E0290002804D11A9A2E207C
:103B3000199990476D1C0199481E01900029DDDC00
:103B400005E038781A9A7F1C199990476D1C0399E3
:103B5000481E03900029F4DC21461A9B199A049808
:103B6000ACE600002D0000002B000000200000004B
:103B700000000000F8B5044600251E4617468804DC
:103B800004D405E039462020B0476D1C641EF9D5E9
:103B90002846F8BDFFB50446002581B01E46C8037F
:103BA00001D5302700E02027880404D505E03846F9
:103BB0000399B0476D1C641EF9D5284605B0F0BDC9
:103BC0004A68002A06D00A68531C0B6010704868C7
:103BD000401E48607047FDF779FEFFF795F8FEF745
:103BE0005DFFFEF747FFFEF7E9FEFEF7C5FFFEF7B4
:103BF000F1FFFFF709F8FFF729F8FCF78BFEFCF758
:103C0000F5FEFCE7F0B585B0024610216846FCF7EA
:103C1000DBFA0025802610236A460021284600F0A2
:103C20007BF800280ED1102402E0301B102800D3AE
:103C30001020C7B23B466A462146284600F06CF881
:103C4000002802D0012005B0F0BD102F03D310349E
:103C5000E4B27F2CE9D96D1CEDB2072DDBD9002031
:103C6000F1E7000030B5164C87B000222021204635
:103C7000FDF7A5FCC820FDF79FFB0122202120466F
:103C8000FDF79DFCFF20F530FDF796FB1C220DA1F2
:103C90006846FCF787FA00246D46285D00F020F89E
:103CA000002802D0012007B030BD641C1B2CF4D3C7
:103CB000C820FDF781FB0520FFF7A4FF0020F2E7F5
:103CC00000040050AE021200B08118A0A6A81FC8C0
:103CD000D300D580D9F1DA12DB408D14AD30AF00BE
:103CE00008B500216A4600911170507002226946A1
:103CF000002000F001F808BD08B5642013460A460C
:103D0000009078210348FDF70FFD002800D0012026
:103D100008BD00001C01002038B51C4615460728C8
:103D200013D87F2911D80207120F6846B0320270EB
:103D30000A07120F42700909103181700322694687
:103D40000020FFF7D9FF002801D0012038BD22460E
:103D500029464020FFF7D0FF38BD000000000000DA
:103D600000000102030406070809030406080C10FA
:103D70001820300000000001020304006164633A6F
:103D800020766261745F7261773D25752076726579
:103D9000665F7261773D2575206578745F72617723
:103DA0003D257520696E745F7261773D25752076BB
:103DB0006464613D256C756D5620766261743D25A5
:103DC0006C756D5620767265663D256C756D562056
:103DD00074696E743D256C642E2530326C64430D1D
:103DE0000A000000043E000800000020200000003F
:103DF000F4320008243E000820000020300A0000B1
:103E00000433000800000000000000000000000073
:103E1000000000000100000004000000000000009D
:043E2000000020007E
:04000005080000C12E
:00000001FF
